{
  "transactions": [
    {
      "hash": "0x6a622c19a94664ef4e63afc1fa78b7d5d89362b52cebfb0d6ef9b0b3d897d10f",
      "transactionType": "CALL",
      "contractName": null,
      "contractAddress": "0x779877a7b0d9e8603169ddbd7836e478b4624789",
      "function": "transferAndCall(address,uint256,bytes)",
      "arguments": [
        "0x9DdfaCa8183c41ad55329BdeeD9F6A8d53168B1B",
        "3000000000000000000",
        "0x86fd474d529ca47b4040bb462f5bc4eae99132ef1647d3bba8f6579983fa31d3"
      ],
      "transaction": {
        "from": "0x5d08da3848273e1ab5e04a34b35e40895a9748fd",
        "to": "0x779877a7b0d9e8603169ddbd7836e478b4624789",
        "gas": "0x1c1ff",
        "value": "0x0",
        "input": "0x4000aea00000000000000000000000009ddfaca8183c41ad55329bdeed9f6a8d53168b1b00000000000000000000000000000000000000000000000029a2241af62c00000000000000000000000000000000000000000000000000000000000000000060000000000000000000000000000000000000000000000000000000000000002086fd474d529ca47b4040bb462f5bc4eae99132ef1647d3bba8f6579983fa31d3",
        "nonce": "0x1b",
        "chainId": "0xaa36a7"
      },
      "additionalContracts": [],
      "isFixedGasLimit": false
    }
  ],
  "receipts": [
    {
      "status": "0x1",
      "cumulativeGasUsed": "0x6e73e5",
      "logs": [
        {
          "address": "0x779877a7b0d9e8603169ddbd7836e478b4624789",
          "topics": [
            "0xddf252ad1be2c89b69c2b068fc378daa952ba7f163c4a11628f55a4df523b3ef",
            "0x0000000000000000000000005d08da3848273e1ab5e04a34b35e40895a9748fd",
            "0x0000000000000000000000009ddfaca8183c41ad55329bdeed9f6a8d53168b1b"
          ],
          "data": "0x00000000000000000000000000000000000000000000000029a2241af62c0000",
          "blockHash": "0xe62bdf1f783119f5db511d752df882ae5bd7a143a9d075086b62df731e3c331c",
          "blockNumber": "0x682923",
          "transactionHash": "0x6a622c19a94664ef4e63afc1fa78b7d5d89362b52cebfb0d6ef9b0b3d897d10f",
          "transactionIndex": "0xf",
          "logIndex": "0x21",
          "removed": false
        },
        {
          "address": "0x779877a7b0d9e8603169ddbd7836e478b4624789",
          "topics": [
            "0xe19260aff97b920c7df27010903aeb9c8d2be5d310a2c67824cf3f15396e4c16",
            "0x0000000000000000000000005d08da3848273e1ab5e04a34b35e40895a9748fd",
            "0x0000000000000000000000009ddfaca8183c41ad55329bdeed9f6a8d53168b1b"
          ],
          "data": "0x00000000000000000000000000000000000000000000000029a2241af62c00000000000000000000000000000000000000000000000000000000000000000040000000000000000000000000000000000000000000000000000000000000002086fd474d529ca47b4040bb462f5bc4eae99132ef1647d3bba8f6579983fa31d3",
          "blockHash": "0xe62bdf1f783119f5db511d752df882ae5bd7a143a9d075086b62df731e3c331c",
          "blockNumber": "0x682923",
          "transactionHash": "0x6a622c19a94664ef4e63afc1fa78b7d5d89362b52cebfb0d6ef9b0b3d897d10f",
          "transactionIndex": "0xf",
          "logIndex": "0x22",
          "removed": false
        },
        {
          "address": "0x9ddfaca8183c41ad55329bdeed9f6a8d53168b1b",
          "topics": [
            "0x1ced9348ff549fceab2ac57cd3a9de38edaaab274b725ee82c23e8fc8c4eec7a",
            "0x86fd474d529ca47b4040bb462f5bc4eae99132ef1647d3bba8f6579983fa31d3"
          ],
          "data": "0x000000000000000000000000000000000000000000000000000000000000000000000000000000000000000000000000000000000000000029a2241af62c0000",
          "blockHash": "0xe62bdf1f783119f5db511d752df882ae5bd7a143a9d075086b62df731e3c331c",
          "blockNumber": "0x682923",
          "transactionHash": "0x6a622c19a94664ef4e63afc1fa78b7d5d89362b52cebfb0d6ef9b0b3d897d10f",
          "transactionIndex": "0xf",
          "logIndex": "0x23",
          "removed": false
        }
      ],
      "logsBloom": "0x00000004000000000000000000000000000000000020000000000000020000000000000000000000000000000000000000000000000000000000000000000000000000000000000000000008000000000000000000000000000020000020000008000000000000000000000000000000000000000000000000000010000040000000000100000000000000010000800000000020000000000020000000000000000000000000000000000000010000800000000000000000000204000000000000000002000000000000000000000000000000000000000120000000000000000010000000000000800000000000000800000000000000000000000000000000",
      "type": "0x2",
      "transactionHash": "0x6a622c19a94664ef4e63afc1fa78b7d5d89362b52cebfb0d6ef9b0b3d897d10f",
      "transactionIndex": "0xf",
      "blockHash": "0xe62bdf1f783119f5db511d752df882ae5bd7a143a9d075086b62df731e3c331c",
      "blockNumber": "0x682923",
      "gasUsed": "0x133b1",
      "effectiveGasPrice": "0x1e91bd59736",
      "from": "0x5d08da3848273e1ab5e04a34b35e40895a9748fd",
      "to": "0x779877a7b0d9e8603169ddbd7836e478b4624789",
      "contractAddress": null
    }
  ],
  "libraries": [],
  "pending": [],
  "returns": {},
  "timestamp": 1728223984,
  "chain": 11155111,
  "commit": "db2abf9"
}