{
  "transactions": [
    {
      "hash": null,
      "transactionType": "CALL",
      "contractName": null,
      "contractAddress": "0x779877a7b0d9e8603169ddbd7836e478b4624789",
      "function": "transferAndCall(address,uint256,bytes)",
      "arguments": [
        "0x9DdfaCa8183c41ad55329BdeeD9F6A8d53168B1B",
        "3000000000000000000",
        "0x86fd474d529ca47b4040bb462f5bc4eae99132ef1647d3bba8f6579983fa31d3"
      ],
      "transaction": {
        "from": "0x5d08da3848273e1ab5e04a34b35e40895a9748fd",
        "to": "0x779877a7b0d9e8603169ddbd7836e478b4624789",
        "gas": "0x1c1ff",
        "value": "0x0",
        "input": "0x4000aea00000000000000000000000009ddfaca8183c41ad55329bdeed9f6a8d53168b1b00000000000000000000000000000000000000000000000029a2241af62c00000000000000000000000000000000000000000000000000000000000000000060000000000000000000000000000000000000000000000000000000000000002086fd474d529ca47b4040bb462f5bc4eae99132ef1647d3bba8f6579983fa31d3",
        "nonce": "0x1b",
        "chainId": "0xaa36a7"
      },
      "additionalContracts": [],
      "isFixedGasLimit": false
    }
  ],
  "receipts": [],
  "libraries": [],
  "pending": [],
  "returns": {},
  "timestamp": 1728223371,
  "chain": 11155111,
  "commit": "db2abf9"
}